:020000040800F2
:1000000018040020D5000008AD050008A905000867
:1000100000000000000000000000000000000000E0
:100020000000000000000000000000002B06000897
:100030000000000000000000290600082D0600084E
:10004000000000000000000000000000E7000008C1
:10005000E700000869020008E7000008E700000860
:100060000000000000000000000000000000000090
:10007000E7000008E7000008E700000800000000B3
:1000800000000000E700000800000000E700000892
:10009000000000000000000000000000E700000871
:1000A00000000000E700000800000000E700000872
:1000B0000000000000000000000000000000000040
:1000C0000348854600F03CF8004800479F060008BA
:1000D000180400200448804704480047FEE7FEE774
:1000E000FEE7FEE7FEE7FEE735060008C100000870
:1000F00030B50B46014600202022012409E00D46C0
:10010000D5409D4205D31D469540491B2546954047
:1001100040191546521E002DF1DC30BDD2B201E06F
:100120000270401C491EFBD270470022F6E710B552
:1001300013460A4604461946FFF7F0FF204610BD55
:10014000064C0125064E05E0E36807CC2B430C3C2A
:1001500098471034B442F7D3FFF7B6FFB80600084B
:10016000D806000800B587B0142102A8FFF7DDFF0C
:1001700000BF1248406B01210843104948630846FC
:10018000406BC007C00F019000BF00BF0C48039038
:1001900001200490022005900120029002A9052070
:1001A000000700F07BF8052000F0CCF90022114692
:1001B000052000F0D3F907B000BD00000010024098
:1001C0000000211010B586B0044600BF00BF1448DF
:1001D000406B01210843124948630846406BC00741
:1001E000C00F009000BF00BF00BF60000D49085A5B
:1001F0000190012002900020039002200490A100B1
:10020000094A505801A900F049F86200054B995A73
:10021000A200054B9858012200F022F906B010BD4B
:1002200000100240B00600080400002010B504468B
:100230006200044B995AA200034B985800F008F949
:1002400010BD0000B00600080400002008B50549F4
:100250004143009100BF00BF00994A1E009200294F
:10026000F9D108BDB80B000010B50020FFF7DEFF84
:10027000012000F003F810BD7047000010B50446DF
:100280000548C0682040002804D00348C4602046C8
:10029000FFF7F2FF10BD00000018024070B50346E2
:1002A0000022CBE0012696400C683440002C71D02F
:1002B0004D68022D02D04D68122D15D1D508AE0023
:1002C0001D462035A8595507EE0E0F25B5400646A8
:1002D000AE4330465607F60E0D69B5402843D508A3
:1002E000AD001E4620367051186856000325B540F3
:1002F0000646AE4330460D79AD07AD0F5600B5400A
:10030000284318604D68012D08D04D68022D05D096
:100310004D68112D02D04D68122D18D198685600E5
:100320000325B5400646AE4330465600CD68B5407D
:10033000284398605868012595400646AE433046EC
:1003400010264D6835402D09954028435860D868DF
:1003500056000325B5400646AE43304656008D682C
:10036000B5402843D860012636074D683540B54270
:1003700063D1354D9608B600A8599507EE0E0F25A6
:10038000B5400646AE43304605252D07AB4202D1A7
:10039000002506E051E02D4DAB4201D1012500E0E2
:1003A00002259607F60EB5402843274D9608B6005D
:1003B000A851254D203528680546A5432846012625
:1003C00036044D683540B54202D1054625432846DE
:1003D0001D4D2035286068680546A543284601263E
:1003E00076044D683540B54202D10546254328467E
:1003F000154D20356860144D603D28680546A543BD
:100400002846012636054D683540B54202D10546DD
:10041000254328460C4D603D286068680546A54385
:100420002846012676054D683540B54202D105467D
:1004300025432846044D603D6860521C0D68D54038
:10044000002D00D02EE770BD60180240000400505F
:1004500042690A40002A01D0816200E08161704750
:10046000002A01D0816100E0816270470348006882
:100470000349096840180149086070470C000020D2
:100480001400002010B50024032000F009F8002813
:1004900001D0012401E000F033F8204610BD000037
:1004A000F8B5044600251348006800281ED01148FE
:1004B00001687D20C000FFF71BFE074639460E4845
:1004C0000068FFF715FE064600F052F800280BD131
:1004D000042C07D200222146401E00F03FF80748B6
:1004E000046004E0012502E0012500E00125284622
:1004F000F8BD0000140000200000002010000020C3
:1005000008B500BF0E480068012108430C49086087
:1005100008460068C007C00F009000BF00BF00BFC2
:1005200007484038C06B8905084305494039C8630E
:100530000846C06B09040840009000BF00BF08BD1A
:100540004010024000BFC206D20E01219140024A73
:10055000116000BF7047000000E100E070B5044684
:100560000D4616462946204600F022F870BD0000D0
:1005700070B504462546681E0949884201D9012004
:100580000CE0681E074948610321081F00F010F8BD
:1005900000200449886107200861002070BD000028
:1005A000FFFFFF0000E000E000BFFEE77047000033
:1005B00010B5002819DA1A4A03071B0F083B9B08DD
:1005C0009B00D2588307DC0EFF23A3409A438B077E
:1005D0001B0E8407E40EA3401A43114B0407240F9B
:1005E000083CA408A4001A5118E00E4A03231B0279
:1005F000D21883089B00D2588307DC0EFF23A34048
:100600009A438B071B0E8407E40EA3401A43054B45
:10061000032424021B198408A4001A5110BD0000F1
:100620001CED00E000E100E07047704710B5FFF7F7
:100630001DFF10BD10B50E484068000C00040D49A8
:10064000098889B208430A494860084640680A494F
:100650000840084940318988C905C9090843044947
:100660004860C80305498860C820FFF7EFFD10BD4A
:10067000001002400001FF1FFFFF00FE00ED00E040
:1006800002E008C8121F08C1002AFAD1704770475B
:10069000002001E001C1121F002AFBD17047FFF7C3
:1006A000F1FE0020FFF78EFDFFF75CFD00BFFEE7C7
:1006B0000200010005000000D8060008000000202C
:1006C0001800000080060008F0060008180000204E
:1006D000000400009006000800366E010000005083
:1006E00000000050000000000400000001000000B5
:04000005080000C12E
:00000001FF
